:10000000020881C2A4C2A5C2A6C2A0C2A1C2A2C245
:10001000A312001F12002E12003D12004C80F2D2DB
:10002000A0C2A1C2A2C2A37FE87E03020800C2A0B0
:10003000D2A1C2A2C2A37FE87E03020800C2A0C26E
:10004000A1D2A2C2A37FE87E03020800C2A0C2A17F
:0B005000C2A2D2A37FE87E03020800DA
:10080000D3EF9400EE64809480401D7D79EDFB333E
:1008100095E0FAD3EB9400EA6480948040031D8055
:09082000ECEF1F70DB1E80D822F2
:0C088100787FE4F6D8FD758107020003C3
:00000001FF
